:020000040800F2
:1000000000280020F9180008891800088F18000837
:10001000951800089B180008A118000800000000AF
:10002000000000000000000000000000A718000809
:10003000B318000800000000BF180008CB18000823
:100040004119000841190008411900084119000828
:100050004119000841190008411900084119000818
:100060004119000841190008411900084119000808
:1000700041190008411900084119000841190008F8
:1000800041190008411900084119000841190008E8
:1000900041190008411900084119000841190008D8
:1000A00041190008411900084119000841190008C8
:1000B000D918000841190008000000004119000883
:1000C000411900080000000000000000411900086C
:1000D000000000004119000841190008000000005C
:1000E00041190008411900084119000800000000EA
:1000F0000000000000000000000000000000000000
:0C01000000000000000000005FF808F1A3
:10010C0010B5054C237833B9044B13B10448AFF345
:10011C0000800123237010BD980200200000000015
:10012C00982F000808B5034B1BB103490348AFF3E4
:10013C00008008BD000000009C020020982F0008E1
:10014C0080B400AF064B1B68012B04D1044B00227A
:10015C001A60012300E000231846BD4680BC70479E
:10016C00B402002080B400AF064B1B68012B04D1F5
:10017C00044B00221A60012300E000231846BD4600
:10018C0080BC7047B802002080B400AF064B1B68DF
:10019C00012B04D1044B00221A60012300E0002340
:1001AC001846BD4680BC7047BC02002080B400AF2E
:1001BC00034B01221A6000BFBD4680BC704700BFD4
:1001CC00B402002080B400AF034B01221A6000BFC0
:1001DC00BD4680BC704700BFB802002080B400AFA1
:1001EC00034B01221A6000BFBD4680BC704700BFA4
:1001FC00BC02002080B500AF5C4B5B685B4A1360AF
:10020C005A4B9B68594A53604FF40051584801F0BF
:10021C007DFE03461A46554B9A60544B1A68534B55
:10022C005B689A4225D1514B5A68504B9B689A4255
:10023C001FD14E4BDA684D4B9B689A420DD04B4BFD
:10024C009B684A4AD360494B9B68002B11D1FFF73E
:10025C00ADFF484BC8221A600BE0464B1B68013BB4
:10026C00444A1360434B1B68002B02DC3F4B0122BA
:10027C00DA60414B5B68404A13603F4B9B683E4AD7
:10028C0053604FF480413A4801F040FE03461A4651
:10029C00394B9A60384B1A68374B5B689A4225D1B8
:1002AC00354B5A68344B9B689A421FD1324BDA68F3
:1002BC00314B9B689A420DD02F4B9B682E4AD360D2
:1002CC002D4B9B68002B11D1FFF77CFF294BC822CB
:1002DC001A600BE0274B1B68013B264A1360254B29
:1002EC001B68002B02DC244B0122DA60234B5B6879
:1002FC00224A1360214B9B68204A53604FF4004103
:10030C001B4801F003FE03461A461C4B9A601B4B1C
:10031C001A681A4B5B689A4225D1184B5A68174BCE
:10032C009B689A421FD1154BDA68144B9B689A4212
:10033C000DD0124B9B68114AD360104B9B68002B5D
:10034C0011D1FFF74BFF0B4BC8221A600BE0094B86
:10035C001B68013B074A1360064B1B68002B02DC31
:10036C00064B0122DA6000BF80BD00BF00000020F8
:10037C00000C014030000020100000202000002064
:10038C0080B500AF6D4B1B68032B00F2CC8001A233
:10039C0052F823F0B10300080D04000867040008AC
:1003AC00CD04000800220821654801F0C6FD012299
:1003BC001021634801F0C1FD01222021604801F0A9
:1003CC00BCFD01224FF480515D4801F0B6FD5D4B40
:1003DC001B680C2B03D1002000F0C2FBA5E0594B8D
:1003EC001B680D2B03D1002000F0BAFB9DE0554B90
:1003FC001B680E2B40F09980002000F0B1FB94E0BC
:10040C00012208214E4801F098FD002210214C4891
:10041C0001F093FD01222021494801F08EFD0122BB
:10042C004FF48051464801F088FD464B1B680C2B5D
:10043C0003D1022000F094FB79E0424B1B680D2B9A
:10044C0003D1032000F08CFB71E03E4B1B680E2B9C
:10045C006DD1042000F084FB69E0012208213848AA
:10046C0001F06BFD01221021354801F066FD0022E0
:10047C002021334801F061FD01224FF480513048B6
:10048C0001F05BFD2F4B1B680C2B05D12E4B1B6811
:10049C00184600F0F1FA4CE02A4B1B680D2B05D1E5
:1004AC002A4B1B68184600F0E7FA42E0254B1B6804
:1004BC000E2B3ED1264B1B68184600F0DDFA38E0B7
:1004CC00012208211E4801F038FD012210211C4890
:1004DC0001F033FD01222021194801F02EFD0022EC
:1004EC004FF48051164801F028FD164B1B680C2B5D
:1004FC0005D1154B5B68184600F032FB1BE0114B25
:10050C001B680D2B05D1114B5B68184600F028FBBE
:10051C0011E00C4B1B680E2B0DD10D4B5B68184674
:10052C0000F01EFB07E000BF06E000BF04E000BFC8
:10053C0002E000BF00E000BF00BF80BDF002002061
:10054C00000C014070020020740200207C0200208C
:10055C008402002080B500AF01224FF48071164850
:10056C0001F0EBFC01224FF48061134801F0E5FC33
:10057C0001224FF40071104801F0DFFC01224FF40E
:10058C0000610D4801F0D9FC012201210A4801F05B
:10059C00D4FC01224FF40041084801F0CEFC0122AA
:1005AC000221054801F0C9FC01220421024801F096
:1005BC00C4FC00BF80BD00BF000C0140000801401E
:1005CC0080B500AF01224021154801F0B6FC012294
:1005DC008021134801F0B1FC01224FF480611048D6
:1005EC0001F0ABFC01224FF400610D4801F0A5FCB9
:1005FC00012201210A4801F0A0FC01224FF4004124
:10060C00084801F09AFC01220221054801F095FCF2
:10061C0001220421024801F090FC00BF80BD00BF04
:10062C00000C01400008014080B500AF01224021C0
:10063C00154801F082FC01228021134801F07DFC59
:10064C0001224FF48071104801F077FC01224FF425
:10065C0000710D4801F071FC012201210A4801F0E2
:10066C006CFC01224FF40041084801F066FC0122A9
:10067C000221054801F061FC01220421024801F02D
:10068C005CFC00BF80BD00BF000C014000080140B5
:10069C0080B500AFA94B1B680A3B042B00F2CF813D
:1006AC0001A252F823F000BFC90600086907000830
:1006BC00A1070008730800087109000801224021F5
:1006CC009F4801F03AFC012280219D4801F035FC45
:1006DC0001224FF480619A4801F02FFC01224FF463
:1006EC000061974801F029FC01224FF48071944875
:1006FC0001F023FC01224FF40071914801F01DFC24
:10070C00012201218E4801F018FC01224FF4004116
:10071C008C4801F012FC01220221894801F00DFCE9
:10072C0001220421864801F008FC0122082184489A
:10073C0001F003FC01221021814801F0FEFB012293
:10074C0020217F4801F0F9FB01224FF480517C48B5
:10075C0001F0F3FB794B0B221A6079E100F07AFC83
:10076C00FFF7EEFC0346012B40F06B81734B0C2220
:10077C001A60754B00221A60FA2000F0ABFF0122C0
:10078C0040216F4801F0D9FB012280216C4801F017
:10079C00D4FB56E16D4B1B68012B10D16A4B1B68C7
:1007AC000133694A1360684B1B68032B02DD664BEF
:1007BC0000221A60FFF7E4FDFA2000F08BFFFFF730
:1007CC00C9FE634B1B68012B0BD140215C4801F027
:1007DC00CCFB80215A4801F0C8FB4FF4FA6000F0C2
:1007EC0051FFFFF7BFFC0346012B04D1594B5B684B
:1007FC000133584A5360574B5B68092B0EDD554B40
:10080C001B680133534A1360524B00225A60514B00
:10081C001B68092B02DD4F4B00221A60FFF7B4FC5A
:10082C000346012B0BD14B4B1A6813469B00134408
:10083C005B001A46474B5B681344474A1360FFF74B
:10084C007FFC0346012B40F0FE803C4B0D221A60CE
:10085C004FF4FA6000F016FF3B4B00221A60FA20AE
:10086C0000F038FFEFE0FFF7ABFE384B1B68012BB5
:10087C0010D1354B1B680133334A1360324B1B6864
:10088C00032B02DD304B00221A60FFF779FDFA20B2
:10089C0000F020FF2E4B1B68012B0DD14FF4807103
:1008AC00274801F062FB4FF40071254801F05DFB15
:1008BC004FF4FA6000F0E6FEFFF754FC0346012B00
:1008CC0004D1264B5B680133244A5360234B5B688D
:1008DC00092B0EDD214B1B680133204A13601F4B83
:1008EC0000225A601D4B1B68092B02DD1B4B00229A
:1008FC001A60FFF749FC0346012B0BD1174B1A6802
:10090C0013469B0013445B001A46144B5B6813445C
:10091C00134A1360FFF714FC0346012B40F095803B
:10092C00064B0E221A604FF4FA6000F0ABFE064B39
:10093C0000221A60FA2000F0CDFE86E07002002042
:10094C00000C014000080140F002002010030020C0
:10095C000803002074020020640200207C020020A6
:10096C0068020020FFF760FE3A4B1B68012B10D188
:10097C00394B1B680133384A1360374B1B68032B08
:10098C0002DD354B00221A60FFF7FAFCFA2000F06A
:10099C00A1FE324B1B68012B0DD14FF48061304806
:1009AC0001F0E3FA4FF400612D4801F0DEFA4FF448
:1009BC00FA6000F067FEFFF7D5FB0346012B04D16C
:1009CC00284B5B680133274A5360264B5B68092B25
:1009DC000EDD244B1B680133224A1360214B00228D
:1009EC005A60204B1B68092B02DD1E4B00221A603B
:1009FC00FFF7CAFB0346012B0BD11A4B1A6813469F
:100A0C009B0013445B001A46164B5B681344164A52
:100A1C001360FFF795FB0346012B18D1134B0B22E8
:100A2C001A60134B01221A60124B05221A604FF404
:100A3C00FA6000F027FEFA2000F038FE07E000BF55
:100A4C0006E000BF04E000BF02E000BF00E000BF12
:100A5C0000BF80BD10030020F0020020080300201E
:100A6C00000C0140840200206C0200207002002067
:100A7C00F4020020F802002080B582B000AF78604C
:100A8C0035497A681346DB009B1A9B000B441B68A4
:100A9C00DBB21A460221314801F04FFA2E497A682E
:100AAC001346DB009B1A9B000B4404331B68DBB220
:100ABC001A460421294801F040FA27497A6813465E
:100ACC00DB009B1A9B000B4408331B68DBB21A46F5
:100ADC000821224801F031FA1F497A681346DB00DD
:100AEC009B1A9B000B440C331B68DBB21A4610217B
:100AFC001A4801F022FA18497A681346DB009B1A4F
:100B0C009B000B4410331B68DBB21A4620211348A0
:100B1C0001F013FA10497A681346DB009B1A9B000C
:100B2C000B4414331B68DBB21A4640210B4801F00E
:100B3C0004FA09497A681346DB009B1A9B000B44A4
:100B4C0018331B68DBB21A468021044801F0F5F912
:100B5C0000BF0837BD4680BD3400002000080140AE
:100B6C0080B582B000AF786039497A681346DB00F3
:100B7C009B1A9B000B441B68DBB21A464FF4807126
:100B8C00344801F0DAF932497A681346DB009B1AD3
:100B9C009B000B4404331B68DBB21A464FF4007104
:100BAC002C4801F0CAF92A497A681346DB009B1AD3
:100BBC009B000B4408331B68DBB21A464FF4806170
:100BCC00244801F0BAF922497A681346DB009B1AD3
:100BDC009B000B440C331B68DBB21A464FF40061CC
:100BEC001C4801F0AAF91A497A681346DB009B1AD3
:100BFC009B000B4410331B68DBB21A464FF4805138
:100C0C00144801F09AF912497A681346DB009B1AD2
:100C1C009B000B4414331B68DBB21A464FF4005193
:100C2C000C4801F08AF90A497A681346DB009B1AD2
:100C3C009B000B4418331B68DBB21A464FF48041FF
:100C4C00044801F07AF900BF0837BD4680BD00BFEB
:100C5C004C0100200008014080B400AF494B1B68D8
:100C6C00042B2AD0042B3ADC022B02D0032B12D0FB
:100C7C0035E0454B5B68013B434A5360424B5B6834
:100C8C00002B2EDA404B09225A603F4B1B68013B6C
:100C9C003D4A136025E03D4B5B68013B3B4A53608A
:100CAC003A4B5B68002B1EDA384B09225A60374BE3
:100CBC001B68013B354A136015E0354B5B68013B03
:100CCC00334A5360324B5B68002B0EDA304B0922EF
:100CDC005A602F4B1B68013B2D4A136005E000BF87
:100CEC0004E000BF02E000BF00E000BF294B1B681E
:100CFC00082B2AD0082B3ADC062B02D0072B12D05B
:100D0C0035E0254B5B68013B234A5360224B5B6803
:100D1C00002B2EDA204B09225A601F4B1B68013B1B
:100D2C001D4A136025E01D4B5B68013B1B4A536059
:100D3C001A4B5B68002B1EDA184B09225A60174BB2
:100D4C001B68013B154A136015E0154B5B68013BB2
:100D5C00134A5360124B5B68002B0EDA104B0922BE
:100D6C005A600F4B1B68013B0D4A136005E000BF36
:100D7C0004E000BF02E000BF00E000BF00BFBD46C2
:100D8C0080BC7047F4020020C0020020D00200207A
:100D9C00C8020020F8020020D8020020E80200203F
:100DAC00E002002080B500AF9F4B1B68032B00F2C4
:100DBC00378101A252F823F0D50D00086B0E000804
:100DCC00010F0008970F000800220121974801F03D
:100DDC00B4F801224FF40041954801F0AEF801221D
:100DEC000221924801F0A9F8012204218F4801F058
:100DFC00A4F8002208218D4801F09FF8012210214F
:100E0C008A4801F09AF801222021884801F095F8CF
:100E1C0001224FF48051854801F08FF8854B1B68F7
:100E2C00022B05D1844B1B681846FFF725FE12E0F8
:100E3C00804B1B68032B05D1804B1B681846FFF7B2
:100E4C001BFE08E07B4B1B68042B04D17C4B1B68FE
:100E5C001846FFF711FE0020FFF782FEE1E00122A9
:100E6C000121724801F069F800224FF400417048EA
:100E7C0001F063F8012202216C4801F05EF80122B6
:100E8C0004216A4801F059F801220821674801F051
:100E9C0054F800221021654801F04FF8012220215E
:100EAC00624801F04AF801224FF480515F4801F08A
:100EBC0044F8604B1B68022B05D15F4B5B681846EE
:100ECC00FFF7DAFD12E05B4B1B68032B05D15B4B84
:100EDC005B681846FFF7D0FD08E0564B1B68042BE7
:100EEC0004D1574B5B681846FFF7C6FD0120FFF78E
:100EFC0037FE96E0012201214C4801F01EF8012238
:100F0C004FF400414A4801F018F8002202214748EA
:100F1C0001F013F801220421444801F00EF80022DC
:100F2C000821424801F009F8012210213F4801F044
:100F3C0004F8012220213D4800F0FFFF01224FF46C
:100F4C0080513A4800F0F9FF3E4B1B68062B05D147
:100F5C003D4B1B681846FFF78FFD12E0394B1B68A1
:100F6C00072B05D1394B1B681846FFF785FD08E0A8
:100F7C00344B1B68082B04D1354B1B681846FFF704
:100F8C007BFD0020FFF7ECFD4BE0012201212748FF
:100F9C0000F0D3FF01224FF40041254800F0CDFFB3
:100FAC0001220221214800F0C8FF002204211F4821
:100FBC0000F0C3FF012208211C4800F0BEFF0022F4
:100FCC0010211A4800F0B9FF01222021174800F027
:100FDC00B4FF01224FF48051144800F0AEFF194BBE
:100FEC001B68062B05D1184B5B681846FFF744FDB0
:100FFC0012E0144B1B68072B05D1144B5B68184689
:10100C00FFF73AFD08E00F4B1B68082B04D1104B7F
:10101C005B681846FFF730FD0120FFF7A1FD00E0EB
:10102C0000BF00BF80BD00BFFC020020000C0140CF
:10103C0000080140F4020020C0020020D002002071
:10104C00C8020020F8020020D8020020E80200208C
:10105C00E002002080B500AF954B1B68013B032BD1
:10106C0000F2B18001A252F823F000BF89100008F1
:10107C00F51000083F1100088911000801224021D9
:10108C008C4800F05AFF01224FF48071894800F01F
:10109C0054FF01224FF48061864800F04EFF844BD0
:1010AC0002221A60844B1B684FF47A7202FB03F322
:1010BC00184600F0BFFA814B1B68814A13607F4BC6
:1010CC005B687F4A53607F4B1B687F4A13607D4B84
:1010DC005B687D4A53607D4B1B687D4A13607B4B7C
:1010EC005B687B4A536075E000224021714800F038
:1010FC0024FF01224FF480716E4800F01EFF012284
:10110C004FF480616B4800F018FF6D4B1B68002B8F
:10111C005BD16B4B5B68002B57D1654B03221A607C
:10112C00664B1B68664A1360644B5B68644A536089
:10113C004BE0012240215F4800F0FFFE00224FF4FB
:10114C0080715C4800F0F9FE01224FF4806159482F
:10115C0000F0F3FE5C4B1B68002B38D15A4B5B68DC
:10116C00002B34D1524B04221A60564B1B68564A42
:10117C001360544B5B68544A536028E001224021B1
:10118C004C4800F0DAFE01224FF48071494800F01F
:10119C00D4FE00224FF48061464800F0CEFE4C4B4A
:1011AC001B68002B15D14A4B5B68002B11D1404BAF
:1011BC0002221A60454B1B68454A1360434B5B681F
:1011CC00434A536005E000BF04E000BF02E000BFEB
:1011DC0000E000BF3F4B1B68053B032B00F2CE80A9
:1011EC0001A252F823F000BF05120008711200088A
:1011FC00F51200083F130008012280212D4800F051
:10120C009CFE01224FF400712A4800F096FE012248
:10121C004FF40061274800F090FE2E4B07221A6015
:10122C002D4B1B684FF47A7202FB03F3184600F047
:10123C0015FA224B1B68294A1360204B5B68274A1E
:10124C005360204B1B68264A13601E4B5B68244A74
:10125C0053601E4B1B68234A13601C4B5B68214A6E
:10126C00536092E000228021124800F066FE0122B9
:10127C004FF400710F4800F060FE01224FF4006142
:10128C000C4800F05AFE154B1B68002B78D1134B01
:10129C005B68002B74D10F4B07221A60074B1B683D
:1012AC000E4A1360054B5B680C4A536068E000BF44
:1012BC00F4020020000C01406402002074020020A3
:1012CC00C00200207C020020D002002084020020FA
:1012DC00C8020020F802002068020020D80200207A
:1012EC00E8020020E002002001228021334800F0B7
:1012FC0024FE00224FF40071304800F01EFE012243
:10130C004FF400612D4800F018FE2D4B1B68002B8C
:10131C0038D12B4B5B68002B34D12A4B08221A6036
:10132C00294B1B68264A1360274B5B68244A536081
:10133C0028E001228021214800F0FFFD01224FF41A
:10134C0000711E4800F0F9FD00224FF400611B48AB
:10135C0000F0F3FD1D4B1B68002B15D11B4B5B687C
:10136C00002B11D1174B06221A60194B1B68174A18
:10137C001360174B5B68154A536005E000BF04E02F
:10138C0000BF02E000BF00E000BFFFF70BFD114BF8
:10139C001B68012B10D1104B1B6801330E4A1360D4
:1013AC000D4B1B68032B04DD0B4B00221A60FFF75F
:1013BC0053FCFA2000F07AF900BF80BD000C01400C
:1013CC00E8020020F80200207C020020E00200204D
:1013DC00840200200C030020FC02002080B500AF2A
:1013EC0000F0AAFA00F028F800F0AEF800F060F86F
:1013FC000C4801F00BFA0C4B0A221A600B4B012221
:10140C001A600B4B05221A604FF4FA6000F03AF99F
:10141C00FA2000F04BF9074B00221A60FFF738F95D
:10142C00FCE700BF2803002070020020F40200201B
:10143C00F8020020FC02002080B590B000AF07F14C
:10144C00180328220021184601F098FD3B1D0022AC
:10145C001A605A609A60DA601A610223BB61012338
:10146C00BB621023FB6200237B6307F11803184651
:10147C0000F094FD0346002B01D000F0D5F80F23AB
:10148C007B600023BB600023FB6000233B610023D7
:10149C007B613B1D0021184601F000F80346002B30
:1014AC0001D000F0C1F800BF4037BD4680BD000040
:1014BC0080B586B000AF07F1080300221A605A60AD
:1014CC009A60DA603B4600221A605A601D4B4FF05E
:1014DC0080421A601B4B41F63F725A60194B002236
:1014EC009A60184B0922DA60164B00221A61154BD0
:1014FC0000229A61134801F039F90346002B01D000
:10150C0000F092F84FF48053BB6007F108031946C2
:10151C000C4801F0CFFA0346002B01D000F084F800
:10152C0000233B6000237B603B461946054801F0D5
:10153C0097FC0346002B01D000F076F800BF18375B
:10154C00BD4680BD2803002080B586B000AF07F1F2
:10155C00080300221A605A609A60DA60294B9B6972
:10156C00284A43F004039361264B9B6903F0040360
:10157C007B607B68234B9B69224A43F00803936191
:10158C00204B9B6903F008033B603B6800224FF63D
:10159C00FE711D4800F0D1FC002241F6FF711B4882
:1015AC0000F0CBFC4FF6FE73BB600123FB60002305
:1015BC003B6102237B6107F108031946124800F0D6
:1015CC002BFB41F6FF73BB600123FB6000233B61E7
:1015DC0002237B6107F1080319460C4800F01CFB41
:1015EC004FF46043BB600023FB6001233B6107F1B8
:1015FC0008031946054800F00FFB00BF1837BD461D
:10160C0080BD00BF0010024000080140000C0140EA
:10161C0080B582B000AF786000F070F8FEF7EAFD9C
:10162C0000BF0837BD4680BD80B400AF72B600BFA6
:10163C00FEE7000080B483B000AF7860054A7B6899
:10164C001360054B00221A6000BF0C37BD4680BCEE
:10165C00704700BF140300200003002080B483B047
:10166C0000AF7860054A7B681360054B00221A6056
:10167C0000BF0C37BD4680BC704700BF180300206C
:10168C000403002080B483B000AF7860054A7B6807
:10169C001360054B00221A6000BF0C37BD4680BC9E
:1016AC00704700BF1C0300200803002080B483B0E7
:1016BC0000AF7860054A7B681360054B00221A6006
:1016CC0000BF0C37BD4680BC704700BF2003002014
:1016DC000C03002080B483B000AF7860054A7B68AF
:1016EC001360054B00221A6000BF0C37BD4680BC4E
:1016FC00704700BF240300201003002080B400AF0B
:10170C00294B1B68002B0BDD274B1B68013B264A22
:10171C001360254B1B68002B02DC244B01221A6042
:10172C00234B1B68002B0BDD214B1B68013B204A14
:10173C0013601F4B1B68002B02DC1E4B01221A602E
:10174C001D4B1B68002B0BDD1B4B1B68013B1A4A06
:10175C001360194B1B68002B02DC184B01221A601A
:10176C00174B1B68002B0BDD154B1B68013B144AF8
:10177C001360134B1B68002B02DC124B01221A6006
:10178C00114B1B68002B0BDD0F4B1B68013B0E4AEA
:10179C0013600D4B1B68002B02DC0C4B01221A60F2
:1017AC0000BFBD4680BC704714030020000300201E
:1017BC0018030020040300201C0300200803002051
:1017CC00200300200C030020240300201003002021
:1017DC0080B485B000AF154B9B69144A43F00103EC
:1017EC009361124B9B6903F00103BB60BB680F4B09
:1017FC00DB690E4A43F08053D3610C4BDB6903F079
:10180C0080537B607B680A4B5B68FB60FB6823F052
:10181C00E063FB60FB6843F08063FB60044AFB6899
:10182C00536000BF1437BD4680BC704700100240A7
:10183C000000014080B584B000AF78607B681B6805
:10184C00B3F1804F13D10C4BDB690B4A43F001030E
:10185C00D361094BDB6903F00103FB60FB680022D9
:10186C0000211C2000F0A1F91C2000F0BAF900BFE7
:10187C001037BD4680BD00BF0010024080B400AFE1
:10188C00FEE780B400AFFEE780B400AFFEE780B4A3
:10189C0000AFFEE780B400AFFEE780B400AF00BF3E
:1018AC00BD4680BC704780B400AF00BFBD4680BC55
:1018BC00704780B400AF00BFBD4680BC704780B598
:1018CC0000AF00F07FF800BF80BD000080B500AF16
:1018DC00024800F0E7FF00BF80BD00BF28030020D6
:1018EC0080B400AF00BFBD4680BC70470C480D49AA
:1018FC000D4A002302E0D458C4500433C4188C425F
:10190C00F9D30A4A0A4C002301E013600432A242C4
:10191C00FBD3FFF7E5FF01F00DFBFFF75FFD704711
:10192C000000002098020020D82F00089802002008
:10193C0074030020FEE7000080B500AF084B1B6865
:10194C00074A43F010031360032000F023F90F2023
:10195C0000F008F8FFF73CFF0023184680BD00BFDD
:10196C000020024080B582B000AF7860124B1A683C
:10197C00124B1B7819464FF47A73B3FBF1F3B2FB9D
:10198C00F3F3184600F03BF90346002B01D001237A
:10199C000EE07B680F2B0AD8002279684FF0FF30DD
:1019AC0000F003F9064A7B681360002300E0012372
:1019BC0018460837BD4680BD8C02002094020020DA
:1019CC009002002080B400AF054B1B781A46054BE3
:1019DC001B681344034A136000BFBD4680BC7047AC
:1019EC00940200207003002080B400AF024B1B68EF
:1019FC001846BD4680BC70477003002080B485B08B
:101A0C0000AF78607B6803F00703FB600C4BDB686E
:101A1C00BB60BA684FF6FF031340BB60FB681A0249
:101A2C00BB68134343F0BF6343F40033BB60044A09
:101A3C00BB68D36000BF1437BD4680BC704700BF85
:101A4C0000ED00E080B400AF044BDB681B0A03F030
:101A5C0007031846BD4680BC704700BF00ED00E090
:101A6C0080B483B000AF0346FB7197F90730002BAD
:101A7C000BDBFB7903F01F02064997F907305B0972
:101A8C00012000FA02F241F8232000BF0C37BD46BA
:101A9C0080BC704700E100E080B483B000AF034627
:101AAC003960FB7197F90730002B0ADB3B68DAB21F
:101ABC000C4997F907301201D2B20B4483F800237A
:101ACC000AE03B68DAB20849FB7903F00F03043BE8
:101ADC001201D2B20B441A7600BF0C37BD4680BC43
:101AEC00704700BF00E100E000ED00E080B489B079
:101AFC0000AFF860B9607A60FB6803F00703FB6124
:101B0C00FB69C3F10703042B28BF0423BB61FB69EA
:101B1C000433062B02D9FB69033B00E000237B61F5
:101B2C004FF0FF32BB6902FA03F3DA43BB681A4089
:101B3C007B699A404FF0FF317B6901FA03F3D9437B
:101B4C007B680B40134318462437BD4680BC704756
:101B5C0080B582B000AF78607B68013BB3F1807FC9
:101B6C0001D301230FE00A4A7B68013B53600F212C
:101B7C004FF0FF30FFF790FF054B00229A60044BAB
:101B8C0007221A60002318460837BD4680BD00BFE7
:101B9C0010E000E080B582B000AF78607868FFF7A5
:101BAC002DFF00BF0837BD4680BD80B586B000AFA5
:101BBC000346B9607A60FB7300237B61FFF742FF39
:101BCC0078617A68B9687869FFF790FF024697F9EF
:101BDC000F3011461846FFF75FFF00BF1837BD46A0
:101BEC0080BD80B582B000AF0346FB7197F907301A
:101BFC001846FFF735FF00BF0837BD4680BD80B5DE
:101C0C0082B000AF78607868FFF7A2FF03461846F1
:101C1C000837BD4680BD000080B48BB000AF786043
:101C2C00396000237B6200233B6248E101227B6A1E
:101C3C0002FA03F3FB613B681B68FA691340BB6152
:101C4C00BA69FB699A4240F037813B685B68A34AEA
:101C5C0093425ED0A14A934275D8A14A934258D080
:101C6C009F4A93426FD89F4A934252D09D4A9342C7
:101C7C0069D89D4A93424CD09B4A934263D89B4A65
:101C8C00934246D0994A93425DD8122B2AD8122BF4
:101C9C0059D801A252F823F01F1D0008F91C0008A6
:101CAC000B1D00084D1D0008531D0008531D000896
:101CBC00531D0008531D0008531D0008531D000838
:101CCC00531D0008531D0008531D0008531D000828
:101CDC00531D0008531D0008531D0008011D00086A
:101CEC00151D0008824A934213D02CE03B68DB6838
:101CFC003B6229E03B68DB6804333B6224E03B68D1
:101D0C00DB6808333B621FE03B68DB680C333B62EB
:101D1C001AE03B689B68002B02D104233B6213E062
:101D2C003B689B68012B05D108233B627B68FA69F1
:101D3C001A6109E008233B627B68FA695A6103E087
:101D4C0000233B6200E000BFBB69FF2B01D87B681E
:101D5C0001E07B6804337B61BB69FF2B02D87B6A93
:101D6C009B0002E07B6A083B9B003B617B691A6825
:101D7C000F213B6901FA03F3DB431A40396A3B69D3
:101D8C0001FA03F31A437B691A603B685B6803F042
:101D9C008053002B00F09080564B9B69554A43F0C2
:101DAC0001039361534B9B6903F00103BB60BB6858
:101DBC00514A7B6A9B08023352F82330FB607B6AE2
:101DCC0003F003039B000F2202FA03F3DB43FA68D0
:101DDC001340FB607B68494A93420DD07B68484AAC
:101DEC00934207D07B68474A934201D1022304E017
:101DFC00032302E0012300E000237A6A02F00302CD
:101E0C0092009340FA681343FB603B497B6A9B0842
:101E1C000233FA6841F823203B685B6803F4803393
:101E2C00002B06D0384B1A683749BB6913430B603B
:101E3C0006E0354B1A68BB69DB43334913400B6032
:101E4C003B685B6803F40033002B06D02E4B5A68BA
:101E5C002D49BB6913434B6006E02B4B5A68BB6999
:101E6C00DB43294913404B603B685B6803F48013E8
:101E7C00002B06D0244B9A682349BB6913438B6013
:101E8C0006E0214B9A68BB69DB431F4913408B600A
:101E9C003B685B6803F40013002B06D01A4BDA681E
:101EAC001949BB691343CB6006E0174BDA68BB6971
:101EBC00DB4315491340CB607B6A01337B623B6883
:101ECC001A687B6A22FA03F3002B7FF4AFAE00BFD3
:101EDC0000BF2C37BD4680BC704700BF00003210DD
:101EEC000000311000002210000021100000121020
:101EFC0000001110001002400000014000080140D9
:101F0C00000C0140001001400004014080B485B079
:101F1C0000AF78600B467B807B689A687B881340A7
:101F2C00002B02D00123FB7301E00023FB73FB7B2E
:101F3C0018461437BD4680BC704780B483B000AFE0
:101F4C0078600B467B8013467B707B78002B03D02C
:101F5C007A887B681A6103E07B881A047B681A61B3
:101F6C0000BF0C37BD4680BC704780B485B000AF55
:101F7C0078600B467B807B68DB68FB607A88FB684B
:101F8C0013401A04FB68D9437B880B401A437B68C7
:101F9C001A6100BF1437BD4680BC704780B586B04F
:101FAC0000AF78607B68002B01D101236CE27B6869
:101FBC001B6803F00103002B00F08780924B5B68D9
:101FCC0003F00C03042B0CD08F4B5B6803F00C0359
:101FDC00082B12D18C4B5B6803F48033B3F5803F34
:101FEC000BD1894B1B6803F40033002B6CD07B683E
:101FFC005B68002B68D1012346E27B685B68B3F514
:10200C00803F06D1804B1B687F4A43F480331360BA
:10201C002EE07B685B68002B0CD17B4B1B687A4AEB
:10202C0023F480331360784B1B68774A23F48023A6
:10203C0013601DE07B685B68B3F5A02F0CD1724B6D
:10204C001B68714A43F4802313606F4B1B686E4A04
:10205C0043F4803313600BE06B4B1B686A4A23F428
:10206C0080331360684B1B68674A23F4802313602A
:10207C007B685B68002B13D0FFF7B6FC386108E077
:10208C00FFF7B2FC02463B69D31A642B01D9032338
:10209C00FAE15D4B1B6803F40033002BF0D014E025
:1020AC00FFF7A2FC386108E0FFF79EFC02463B6993
:1020BC00D31A642B01D90323E6E1534B1B6803F4B9
:1020CC000033002BF0D100E000BF7B681B6803F0ED
:1020DC000203002B63D04C4B5B6803F00C03002B0A
:1020EC000BD0494B5B6803F00C03082B1CD1464BFF
:1020FC005B6803F48033002B16D1434B1B6803F051
:10210C000203002B05D07B681B69012B01D0012336
:10211C00BAE13D4B1B6823F0F8027B685B69DB007E
:10212C00394913430B603AE07B681B69002B20D0C4
:10213C00364B01221A60FFF757FC386108E0FFF7B5
:10214C0053FC02463B69D31A022B01D903239BE1B2
:10215C002D4B1B6803F00203002BF0D02A4B1B689D
:10216C0023F0F8027B685B69DB00274913430B60A3
:10217C0015E0264B00221A60FFF736FC386108E0A8
:10218C00FFF732FC02463B69D31A022B01D9032319
:10219C007AE11D4B1B6803F00203002BF0D17B6826
:1021AC001B6803F00803002B3AD07B689B69002B5B
:1021BC0019D0174B01221A60FFF716FC386108E0A2
:1021CC00FFF712FC02463B69D31A022B01D90323F9
:1021DC005AE10D4B5B6A03F00203002BF0D0012097
:1021EC0000F0A6FA1CE00A4B00221A60FFF7FCFB79
:1021FC0038610FE0FFF7F8FB02463B69D31A022B5C
:10220C0008D9032340E100BF001002400000424205
:10221C00800442429E4B5B6A03F00203002BE9D11F
:10222C007B681B6803F00403002B00F0A6800023DE
:10223C00FB75974BDB6903F08053002B0DD1944B4E
:10224C00DB69934A43F08053D361914BDB6903F014
:10225C008053BB60BB680123FB758E4B1B6803F47A
:10226C008073002B18D18B4B1B688A4A43F4807304
:10227C001360FFF7B9FB386108E0FFF7B5FB0246C6
:10228C003B69D31A642B01D90323FDE0814B1B68F6
:10229C0003F48073002BF0D07B68DB68012B06D134
:1022AC007B4B1B6A7A4A43F0010313622DE07B6877
:1022BC00DB68002B0CD1764B1B6A754A23F00103AB
:1022CC001362734B1B6A724A23F0040313621CE003
:1022DC007B68DB68052B0CD16D4B1B6A6C4A43F099
:1022EC00040313626A4B1B6A694A43F001031362CD
:1022FC000BE0674B1B6A664A23F001031362644BC5
:10230C001B6A634A23F0040313627B68DB68002BAF
:10231C0015D0FFF769FB38610AE0FFF765FB024651
:10232C003B69D31A41F28832934201D90323ABE0C3
:10233C00574B1B6A03F00203002BEED014E0FFF79F
:10234C0053FB38610AE0FFF74FFB02463B69D31A97
:10235C0041F28832934201D9032395E04C4B1B6A1E
:10236C0003F00203002BEED1FB7D012B05D1484B72
:10237C00DB69474A23F08053D3617B68DB69002B10
:10238C0000F08180424B5B6803F00C03082B61D09A
:10239C007B68DB69022B46D13F4B00221A60FFF7AA
:1023AC0023FB386108E0FFF71FFB02463B69D31A99
:1023BC00022B01D9032367E0354B1B6803F0007334
:1023CC00002BF0D17B681B6AB3F5803F08D1304BF2
:1023DC005B6823F400327B689B682D4913434B6088
:1023EC002B4B5B6823F474127B68196A7B685B6AFD
:1023FC000B43274913434B60274B01221A60FFF70D
:10240C00F3FA386108E0FFF7EFFA02463B69D31A9A
:10241C00022B01D9032337E01D4B1B6803F000731B
:10242C00002BF0D02FE01C4B00221A60FFF7DCFAD7
:10243C00386108E0FFF7D8FA02463B69D31A022B41
:10244C0001D9032320E0124B1B6803F00073002B0F
:10245C00F0D118E07B68DB69012B01D1012313E07B
:10246C000B4B5B68FB60FB6803F480327B681B6A78
:10247C009A4206D1FB6803F470127B685B6A9A423D
:10248C0001D0012300E0002318461837BD4680BD5B
:10249C0000100240007000406000424280B584B0E1
:1024AC0000AF786039607B68002B01D10123D0E04C
:1024BC006A4B1B6803F007033A689A4210D9674BC2
:1024CC001B6823F0070265493B6813430B60634BA1
:1024DC001B6803F007033A689A4201D00123B8E065
:1024EC007B681B6803F00203002B20D07B681B6801
:1024FC0003F00403002B05D0594B5B68584A43F496
:10250C00E06353607B681B6803F00803002B05D065
:10251C00534B5B68524A43F460535360504B5B68B7
:10252C0023F0F0027B689B684D4913434B607B683A
:10253C001B6803F00103002B40D07B685B68012B08
:10254C0007D1474B1B6803F40033002B15D1012333
:10255C007FE07B685B68022B07D1414B1B6803F063
:10256C000073002B09D1012373E03D4B1B6803F072
:10257C000203002B01D101236BE0394B5B6823F084
:10258C0003027B685B68364913434B60FFF72CFAF8
:10259C00F8600AE0FFF728FA0246FB68D31A41F20A
:1025AC008832934201D9032353E02D4B5B6803F02F
:1025BC000C027B685B689B009A42EBD1274B1B6833
:1025CC0003F007033A689A4210D2244B1B6823F09D
:1025DC00070222493B6813430B60204B1B6803F036
:1025EC0007033A689A4201D0012332E07B681B68EA
:1025FC0003F00403002B08D0194B5B6823F4E06252
:10260C007B68DB68164913434B607B681B6803F0DF
:10261C000803002B09D0124B5B6823F460527B68D3
:10262C001B69DB000E4913434B6000F021F8024696
:10263C000B4B5B681B0903F00F030A49CB5C22FAB6
:10264C0003F3094A1360094B1B681846FFF78AF914
:10265C00002318461037BD4680BD00BF0020024045
:10266C0000100240C02F00088C02002090020020B5
:10267C0090B48AB000AF2A4B3C1D0FCB84E80F00FE
:10268C0040F201233B800023FB610023BB6100234C
:10269C007B6200237B6100233B62224B5B68FB6106
:1026AC00FB6903F00C03042B02D0082B03D02DE0A4
:1026BC001D4B3B622DE0FB699B0C03F00F0307F1F4
:1026CC002802134413F8243C7B61FB6903F4803328
:1026DC00002B13D0134B5B685B0C03F0010307F169
:1026EC002802134413F8283CBB617B690E4A02FB99
:1026FC0003F2BB69B2FBF3F37B6204E07B690B4A28
:10270C0002FB03F37B627B6A3B6202E0064B3B629B
:10271C0000BF3B6A18462837BD4690BC704700BFC7
:10272C00B02F00080010024000127A0000093D0092
:10273C0080B485B000AF78600A4B1B680A4AA2FBD4
:10274C0003235B0A7A6802FB03F3FB6000BFFB68A0
:10275C005A1EFA60002BF9D100BF00BF1437BD46DA
:10276C0080BC70478C020020D34D621080B582B0C3
:10277C0000AF78607B68002B01D1012341E07B68BE
:10278C0093F83D30DBB2002B06D17B68002283F836
:10279C003C207868FFF74EF87B68022283F83D20D6
:1027AC007B681A687B6804331946104600F06AFA95
:1027BC007B68012283F846207B68012283F83E2047
:1027CC007B68012283F83F207B68012283F840203C
:1027DC007B68012283F841207B68012283F8422028
:1027EC007B68012283F843207B68012283F8442014
:1027FC007B68012283F845207B68012283F83D2009
:10280C00002318460837BD4680BD000080B485B053
:10281C0000AF78607B6893F83D30DBB2012B01D0C0
:10282C00012335E07B68022283F83D207B681B681E
:10283C00DA687B681B6842F00102DA607B681B680F
:10284C00164A934209D07B681B68B3F1804F04D0C1
:10285C007B681B68124A934211D17B681B689B688A
:10286C0003F00703FB60FB68062B10D07B681B682A
:10287C001A687B681B6842F001021A6007E07B68EB
:10288C001B681A687B681B6842F001021A600023FF
:10289C0018461437BD4680BC704700BF002C014061
:1028AC000004004080B582B000AF78607B681B6884
:1028BC001B6903F00203022B22D17B681B68DB68C7
:1028CC0003F00203022B1BD17B681B686FF0020222
:1028DC001A617B6801221A777B681B689B6903F07D
:1028EC000303002B03D0786800F0B1F905E0786899
:1028FC0000F0A4F9786800F0B3F97B6800221A772D
:10290C007B681B681B6903F00403042B22D17B68D2
:10291C001B68DB6803F00403042B1BD17B681B686A
:10292C006FF004021A617B6802221A777B681B68BD
:10293C009B6903F44073002B03D0786800F087F98F
:10294C0005E0786800F07AF9786800F089F97B681E
:10295C0000221A777B681B681B6903F00803082B9D
:10296C0022D17B681B68DB6803F00803082B1BD1A2
:10297C007B681B686FF008021A617B6804221A7767
:10298C007B681B68DB6903F00303002B03D07868BA
:10299C0000F05DF905E0786800F050F9786800F017
:1029AC005FF97B6800221A777B681B681B6903F050
:1029BC001003102B22D17B681B68DB6803F010031B
:1029CC00102B1BD17B681B686FF010021A617B689F
:1029DC0008221A777B681B68DB6903F44073002BB1
:1029EC0003D0786800F033F905E0786800F026F938
:1029FC00786800F035F97B6800221A777B681B68D1
:102A0C001B6903F00103012B0ED17B681B68DB688B
:102A1C0003F00103012B07D17B681B686FF00102E7
:102A2C001A617868FEF7F4FD7B681B681B6903F07C
:102A3C008003802B0ED17B681B68DB6803F080035E
:102A4C00802B07D17B681B686FF080021A61786855
:102A5C0000F067FA7B681B681B6903F04003402B8E
:102A6C000ED17B681B68DB6803F04003402B07D159
:102A7C007B681B686FF040021A61786800F0F9F807
:102A8C007B681B681B6903F02003202B0ED17B682D
:102A9C001B68DB6803F02003202B07D17B681B68C5
:102AAC006FF020021A61786800F032FA00BF083724
:102ABC00BD4680BD80B584B000AF786039607B685E
:102ACC0093F83C30012B01D10223B3E07B68012247
:102ADC0083F83C207B68022283F83D207B681B68CE
:102AEC009B68FB60FB6823F07703FB60FB6823F4B7
:102AFC007F43FB607B681B68FA689A603B681B68C5
:102B0C00B3F5005F3ED0B3F5005F00F28780B3F5FC
:102B1C00805F00F08580B3F5805F7FD8702B1AD072
:102B2C00702B7BD8602B50D0602B77D8502B3CD09F
:102B3C00502B73D8402B58D0402B6FD8302B64D0EF
:102B4C00302B6BD8202B60D0202B67D8002B5CD07F
:102B5C00102B5AD062E07B6818683B6899683B6818
:102B6C005A683B68DB6800F05CF97B681B689B6803
:102B7C00FB60FB6843F07703FB607B681B68FA68BB
:102B8C009A604EE07B6818683B6899683B685A68A5
:102B9C003B68DB6800F045F97B681B689A687B68CA
:102BAC001B6842F480429A603BE07B6818683B6883
:102BBC0059683B68DB681A4600F0BCF87B681B68F8
:102BCC005021184600F013F92BE07B6818683B681D
:102BDC0059683B68DB681A4600F0DAF87B681B68BA
:102BEC006021184600F003F91BE07B6818683B680D
:102BFC0059683B68DB681A4600F09CF87B681B68D8
:102C0C004021184600F0F3F80BE07B681A683B682B
:102C1C001B681946104600F0EAF802E000BF00E01D
:102C2C0000BF7B68012283F83D207B68002283F87B
:102C3C003C20002318461037BD4680BD80B483B0BD
:102C4C0000AF786000BF0C37BD4680BC704780B4C5
:102C5C0083B000AF786000BF0C37BD4680BC7047B6
:102C6C0080B483B000AF786000BF0C37BD4680BC29
:102C7C00704780B483B000AF786000BF0C37BD469E
:102C8C0080BC704780B485B000AF786039607B68D9
:102C9C001B68FB607B68254A934207D07B68B3F1C5
:102CAC00804F03D07B68224A934208D1FB6823F003
:102CBC007003FB603B685B68FA681343FB607B68DE
:102CCC001A4A934207D07B68B3F1804F03D07B68DC
:102CDC00174A934208D1FB6823F44073FB603B68AE
:102CEC00DB68FA681343FB60FB6823F080023B68E7
:102CFC005B691343FB607B68FA681A603B689A68EF
:102D0C007B68DA623B681A687B689A627B68074A60
:102D1C00934203D13B681A697B681A637B68012272
:102D2C005A6100BF1437BD4680BC7047002C01406F
:102D3C000004004080B487B000AFF860B9607A60DE
:102D4C00FB681B6A7B61FB681B6A23F00102FB6852
:102D5C001A62FB689B693B613B6923F0F0033B61A2
:102D6C007B681B013A6913433B617B6923F00A03BF
:102D7C007B617A69BB6813437B61FB683A699A6132
:102D8C00FB687A691A6200BF1C37BD4680BC70476D
:102D9C0080B487B000AFF860B9607A60FB681B6ADA
:102DAC0023F01002FB681A62FB689B697B61FB686D
:102DBC001B6A3B617B6923F470437B617B681B035B
:102DCC007A6913437B613B6923F0A0033B61BB68C9
:102DDC001B013A6913433B61FB687A699A61FB6892
:102DEC003A691A6200BF1C37BD4680BC704780B47C
:102DFC0085B000AF786039607B689B68FB60FB68CE
:102E0C0023F07003FB603A68FB68134343F007033D
:102E1C00FB607B68FA689A6000BF1437BD4680BCC3
:102E2C00704780B487B000AFF860B9607A603B60DF
:102E3C00FB689B687B617B6923F47F437B613B6808
:102E4C001A027B681A43BB6813437A6913437B618C
:102E5C00FB687A699A6000BF1C37BD4680BC70471E
:102E6C0080B485B000AF786039607B6893F83C30F3
:102E7C00012B01D1022341E07B68012283F83C2025
:102E8C007B68022283F83D207B681B685B68FB60D3
:102E9C007B681B689B68BB60FB6823F07003FB605E
:102EAC003B681B68FA681343FB607B681B68FA6815
:102EBC005A607B681B68144A934209D07B681B6874
:102ECC00B3F1804F04D07B681B68104A93420CD13D
:102EDC00BB6823F08003BB603B685B68BA68134334
:102EEC00BB607B681B68BA689A607B68012283F8B8
:102EFC003D207B68002283F83C20002318461437C1
:102F0C00BD4680BC704700BF002C0140000400404F
:102F1C0080B483B000AF786000BF0C37BD4680BC76
:102F2C00704780B483B000AF786000BF0C37BD46EB
:102F3C0080BC704770B500260C4D0D4C641BA41062
:102F4C00A64209D100F022F800260A4D0A4C641B57
:102F5C00A410A64205D170BD55F8043B9847013624
:102F6C00EEE755F8043B98470136F2E7D02F0008FE
:102F7C00D02F0008D02F0008D42F0008034602449D
:102F8C00934200D1704703F8011BF9E7F8B500BF75
:102F9C00F8BC08BC9E467047F8B500BFF8BC08BC2E
:042FAC009E46704786
:102FB00002030405060708090A0B0C0D0E0F10107A
:102FC00000000000000000000102030406070809D9
:042FD00031010008C3
:042FD4000D010008E3
:102FD80001000000010000000100000001000000E5
:102FE80001000000010000000100000001000000D5
:102FF80001000000010000000100000001000000C5
:10300800C8000000000000000000000000000000F0
:1030180000000000000000000000000001000000A7
:103028000100000000000000000000000100000096
:103038000100000001000000010000000000000085
:103048000000000001000000000000000000000077
:103058000100000000000000000000000000000067
:103068000000000000000000010000000100000056
:103078000000000001000000000000000000000047
:103088000100000001000000000000000000000036
:103098000000000001000000000000000000000027
:1030A8000100000000000000000000000000000017
:1030B8000100000000000000000000000000000007
:1030C80000000000000000000000000000000000F8
:1030D80000000000010000000100000001000000E5
:1030E80001000000000000000000000000000000D7
:1030F80000000000000000000000000000000000C8
:1031080000000000000000000000000000000000B7
:1031180001000000000000000000000000000000A6
:103128000000000000000000000000000000000097
:103138000000000001000000010000000000000085
:103148000000000001000000010000000100000074
:103158000100000000000000000000000100000065
:103168000000000000000000010000000000000056
:103178000000000000000000000000000000000047
:103188000100000001000000000000000100000034
:103198000000000000000000010000000100000025
:1031A8000000000000000000000000000100000016
:1031B8000000000000000000010000000000000006
:1031C80000000000000000000100000000000000F6
:1031D80000000000000000000000000000000000E7
:1031E80000000000000000000000000001000000D6
:1031F80001000000010000000100000000000000C4
:1032080000000000000000000000000000000000B6
:1032180000000000000000000000000000000000A6
:103228000000000000000000010000000000000095
:10323800000000000A000000050000000300000074
:103248000100000001000000000000000000000074
:103258000500000000000000030000000024F40046
:0832680010000000010000004D
:04000005080018F9DE
:00000001FF
